:020000040800F2
:1000000000000220991E0008710700087707000809
:100010007D0700088307000889070008000000002A
:100020000000000000000000000000008F07000832
:100030009D07000800000000AB070008B907000892
:10004000E91E0008E91E0008E91E0008E91E000874
:10005000E91E0008E91E0008E91E0008C50700089F
:10006000E91E0008E91E0008E91E0008E91E000854
:10007000E91E0008E91E0008E91E0008E91E000844
:10008000E91E0008E91E0008E91E0008E91E000834
:10009000E91E0008E91E0008E91E0008E91E000824
:1000A000E91E0008E91E0008E91E0008E91E000814
:1000B000E1070008E91E0008E91E0008E91E000823
:1000C000E91E0008E91E0008E91E0008E91E0008F4
:1000D000E91E0008E91E0008E91E0008E91E0008E4
:1000E000E91E0008E91E0008E91E0008E91E0008D4
:1000F000E91E0008E91E0008E91E0008E91E0008C4
:10010000E91E0008E91E0008E91E0008E91E0008B3
:10011000E91E0008E91E0008E91E0008E91E0008A3
:10012000E91E0008E91E0008E91E0008E91E000893
:10013000E91E0008E91E0008E91E0008E91E000883
:10014000E91E0008E91E0008E91E0008E91E000873
:10015000E91E0008E91E0008E91E0008E91E000863
:10016000E91E0008E91E0008E91E0008E91E000853
:10017000E91E0008E91E0008E91E00080000000052
:08018000E91E0008E91E000859
:1001880010B5054C237833B9044B13B10448AFF3C9
:1001980000800123237010BD0C0000200000000027
:1001A800441F000808B5034B1BB103490348AFF3CC
:1001B800008008BD0000000010000020441F000857
:1001C80053B94AB9002908BF00281CBF4FF0FF31B6
:1001D8004FF0FF3000F07AB9ADF1080C6DE904CEAC
:1001E80000F006F8DDF804E0DDE9022304B070470A
:1001F8002DE9F0478C460D460446089E002B51D148
:100208008A4217466DD9B2FA82FEBEF1000F0BD0B2
:10021800CEF1200C01FA0EF520FA0CFC02FA0EF7CA
:100228004CEA050C00FA0EF44FEA174A250CBCFB01
:10023800FAF81FFA87F90AFB18CC45EA0C4508FBBF
:1002480009F3AB420AD9ED1908F1FF3280F0238196
:10025800AB4240F22081A8F102083D44ED1AA4B255
:10026800B5FBFAF00AFB105544EA054400FB09F90E
:10027800A14509D9E41900F1FF3380F00A81A145AD
:1002880040F2078102383C44A4EB090440EA0840E4
:100298000021002E61D024FA0EF40023346073602C
:1002A800BDE8F0878B4207D9002E54D0002186E89C
:1002B80021000846BDE8F087B3FA83F1002940F031
:1002C8008E80AB4202D3824200F2FA80841A65EB38
:1002D80003050120AC46002E3FD086E81010BDE88B
:1002E800F08712B90127B7FBF2F7B7FA87FEBEF11C
:1002F800000F34D1EB1B3A0C1FFA87FC0121B3FB2A
:10030800F2F8250C02FB183345EA03450CFB08F309
:10031800AB4207D9ED1908F1FF3002D2AB4200F227
:10032800D1808046ED1AA3B2B5FBF2F002FB10555E
:1003380043EA05440CFB00FCA44507D9E41900F185
:10034800FF3302D2A44500F2B8801846A4EB0C048F
:1003580040EA08409DE731463046BDE8F087CEF1D7
:10036800200405FA0EF307FA0EF720FA04F83A0CFF
:1003780025FA04F448EA0308B4FBF2F14FEA1845F9
:1003880002FB11441FFA87FC45EA044501FB0CF304
:10039800AB4200FA0EF409D9ED1901F1FF3080F0F3
:1003A8008A80AB4240F2878002393D44EB1A1FFA3B
:1003B80088F5B3FBF2F002FB103345EA034500FB76
:1003C8000CF3AB4207D9ED1900F1FF386FD2AB42FD
:1003D8006DD902383D44EB1A40EA01418FE7C1F17B
:1003E800200722FA07F88B4005FA01F448EA0303CC
:1003F80020FA07FE4FEA134CFD404EEA040EB5FB07
:10040800FCF94FEA1E440CFB19551FFA83F844EA1D
:10041800054509FB08F4AC4202FA01F200FA01FAB8
:1004280008D9ED1809F1FF3043D2AC4241D9A9F1FE
:1004380002091D442D1B1FFA8EFEB5FBFCF00CFBB8
:1004480010554EEA054400FB08F8A04507D9E41802
:1004580000F1FF3529D2A04527D902381C4440EACB
:100468000940A4EB0804A0FB02894C45C6464D464A
:1004780015D312D056B1BAEB0E0364EB050404FA97
:1004880007F7CB401F43CC40376074600021BDE8BC
:10049800F0871846F8E69046E0E6C245EAD2B8EB9F
:1004A800020E69EB03050138E4E72846D7E7404622
:1004B80091E78146BEE7014678E702383C4445E7C4
:1004C800084608E7A8F102083D442BE7704700BF3B
:1004D80080B500AF00F0AAF900F006F800F0BCF80B
:1004E80000F06CF8FEE7000080B594B000AF07F1AB
:1004F800200330220021184601F018FD07F10C03F3
:1005080000221A605A609A60DA601A610023BB60A0
:10051800284A284B1B6C43F080531364254B1B6CF3
:1005280003F08053BB60BB6800237B60224A224BE8
:100538001B6843F4804313601F4B1B6803F480431C
:100548007B607B6802233B620123FB6210233B63D1
:100558000223BB630023FB6308233B64A8237B645B
:100568000223BB640423FB6407F12003184600F050
:100578009DFC0346002B01D000F0A4F80F23FB607C
:1005880002233B6100237B614FF4A053BB614FF40E
:100598008053FB6107F10C030521184600F0F6FEB5
:1005A8000346002B01D000F08DF800BF5037BD4640
:1005B80080BD00BF003802400070004080B586B0A2
:1005C80000AF07F1080300221A605A609A60DA60E7
:1005D8003B4600221A605A601E4B4FF080421A6058
:1005E8001C4B4AF20F425A601A4B00229A60194B70
:1005F8004FF4FA62DA60174B00221A61154B002299
:100608009A61144801F05EF80346002B01D000F00F
:1006180059F84FF48053BB6007F1080319460D4899
:1006280001F083F90346002B01D000F04BF80023BA
:100638003B6000237B603B461946064801F098FB67
:100648000346002B01D000F03DF800BF1837BD4627
:1006580080BD00BF2C00002080B586B000AF3B1DD8
:1006680000221A605A609A60DA601A6100233B60BF
:10067800114A114B1B6B43F0010313630E4B1B6BA9
:1006880003F001033B603B6802237B600B4BBB60BC
:100698000023FB603B1D1946094800F049FA002277
:1006A8000021072000F00DFA072000F026FA00BF0D
:1006B8001837BD4680BD00BF003802400000111049
:1006C8000000024080B400AF72B6FEE780B483B089
:1006D80000AF00237B60104A0F4B5B6C43F48043F0
:1006E80053640D4B5B6C03F480437B607B68002391
:1006F8003B60094A084B1B6C43F080531364064B5C
:100708001B6C03F080533B603B6800BF0C37BD4651
:100718005DF8047B704700BF0038024080B584B0A4
:1007280000AF78607B681B68B3F1804F15D1002358
:10073800FB600C4A0B4B1B6C43F001031364094B21
:100748001B6C03F00103FB60FB68002200211C20E6
:1007580000F0B7F91C2000F0D0F900BF1037BD46F3
:1007680080BD00BF0038024080B400AFFEE780B40F
:1007780000AFFEE780B400AFFEE780B400AFFEE74D
:1007880080B400AFFEE780B400AF00BFBD465DF89F
:10079800047B704780B400AF00BFBD465DF8047BA2
:1007A800704780B400AF00BFBD465DF8047B70475A
:1007B80080B500AF00F08CF800BF80BD80B500AFF9
:1007C800044B1B680133034A1360022000F04AFB04
:1007D80000BF80BD2900002080B500AF054B1B6815
:1007E800054A1360054800F098FF024B00221A6082
:1007F80000BF80BD29000020280000202C00002018
:1008080080B400AF084A084BD3F8883043F470032B
:10081800C2F88830044B4FF000629A6000BFBD46B2
:100828005DF8047B704700BF00ED00E080B500AFC5
:100838000E4A0E4B1B6843F4007313600B4A0B4BB4
:100848001B6843F480631360084A084B1B6843F431
:1008580080731360032000F029F9002000F008F8E5
:10086800FFF734FF0023184680BD00BF003C02405C
:1008780080B582B000AF7860124B1A68124B1B78B3
:1008880019464FF47A73B3FBF1F3B2FBF3F318464E
:1008980000F041F90346002B01D001230EE07B68EC
:1008A8000F2B0AD8002279684FF0FF3000F009F9C1
:1008B800064A7B681360002300E0012318460837C6
:1008C800BD4680BD00000020080000200400002074
:1008D80080B400AF064B1B781A46064B1B681344BE
:1008E800044A136000BFBD465DF8047B704700BF33
:1008F800080000206C00002080B400AF034B1B6888
:100908001846BD465DF8047B704700BF6C000020A8
:1009180080B485B000AF78607B6803F00703FB60A4
:100928000C4BDB68BB60BA684FF6FF031340BB6033
:10093800FB681A02BB68134343F0BF6343F40033F8
:10094800BB60044ABB68D36000BF1437BD465DF87E
:10095800047B704700ED00E080B400AF044BDB6817
:100968001B0A03F007031846BD465DF8047B704771
:1009780000ED00E080B483B000AF0346FB7197F947
:100988000730002B0BDB094997F907305B09FA7927
:1009980002F01F02012000FA02F241F8232000BFF2
:1009A8000C37BD465DF8047B704700BF00E100E0EE
:1009B80080B483B000AF03463960FB7197F9073004
:1009C800002B0ADB0D4997F907303A68D2B21201B9
:1009D800D2B20B4483F800230AE00949FB7903F0FB
:1009E8000F03043B3A68D2B21201D2B20B441A7612
:1009F80000BF0C37BD465DF8047B704700E100E09E
:100A080000ED00E080B489B000AFF860B9607A60AA
:100A1800FB6803F00703FB61FB69C3F10703042BC1
:100A280028BF0423BB61FB690433062B02D9FB6989
:100A3800033B00E000237B610122BB6902FA03F358
:100A48005A1EBB681A407B699A4001217B6901FAEA
:100A580003F3591E7B680B40134318462437BD46E1
:100A68005DF8047B7047000080B582B000AF786005
:100A78007B68013BB3F1807F01D301230FE00A4A71
:100A88007B68013B53600F214FF0FF30FFF790FF69
:100A9800054B00229A60044B07221A60002318466F
:100AA8000837BD4680BD00BF10E000E080B582B0C9
:100AB80000AF78607868FFF72BFF00BF0837BD46A6
:100AC80080BD80B586B000AF0346B9607A60FB731D
:100AD80000237B61FFF740FF78617A68B96878691D
:100AE800FFF790FF024697F90F3011461846FFF7B7
:100AF8005FFF00BF1837BD4680BD80B582B000AF2C
:100B08000346FB7197F907301846FFF733FF00BF1C
:100B18000837BD4680BD80B582B000AF7860786880
:100B2800FFF7A2FF034618460837BD4680BD000000
:100B380080B489B000AF7860396000237B610023FE
:100B48003B610023BB610023FB616BE10122FB6970
:100B580002FA03F37B613B681A687B6913403B61C7
:100B68003A697B699A4240F05A813B685B68012B7D
:100B78000BD03B685B68022B07D03B685B68112B86
:100B880003D03B685B68122B30D17B689B68BB61E4
:100B9800FB695B00032202FA03F3DB43BA691340E3
:100BA800BB613B68DA68FB695B0002FA03F3BA6968
:100BB8001343BB617B68BA699A607B685B68BB61F9
:100BC8000122FB6902FA03F3DB43BA691340BB61F4
:100BD8003B685B681B0903F00102FB6902FA03F337
:100BE800BA691343BB617B68BA695A607B68DB6882
:100BF800BB61FB695B00032202FA03F3DB43BA69BA
:100C08001340BB613B689A68FB695B0002FA03F317
:100C1800BA691343BB617B68BA69DA603B685B6891
:100C2800022B03D03B685B68122B23D1FB69DA08DF
:100C38007B68083253F82230BB61FB6903F0070375
:100C48009B000F2202FA03F3DB43BA691340BB612E
:100C58003B681A69FB6903F007039B0002FA03F378
:100C6800BA691343BB61FB69DA087B680832B96962
:100C780043F822107B681B68BB61FB695B00032299
:100C880002FA03F3DB43BA691340BB613B685B6854
:100C980003F00302FB695B0002FA03F3BA6913432A
:100CA800BB617B68BA691A603B685B6803F0805374
:100CB800002B00F0B4800023FB605F4A5E4B5B6C46
:100CC80043F4804353645C4B5B6C03F48043FB60E8
:100CD800FB685A4AFB699B08023352F82330BB6110
:100CE800FB6903F003039B000F2202FA03F3DB43C3
:100CF800BA691340BB617B68514A93422BD07B6829
:100D0800504A934225D07B684F4A93421FD07B6854
:100D18004E4A934219D07B684D4A934213D07B6860
:100D28004C4A93420DD07B684B4A934207D07B686C
:100D38004A4A934201D107230EE008230CE0062318
:100D48000AE0052308E0042306E0032304E0022365
:100D580002E0012300E00023FA6902F00302920096
:100D68009340BA691343BB613449FB699B0802335A
:100D7800BA6941F823203A4B1B68BB613B69DB43E6
:100D8800BA691340BB613B685B6803F48033002B8E
:100D980003D0BA693B691343BB61314ABB6913602D
:100DA8002F4B5B68BB613B69DB43BA691340BB618E
:100DB8003B685B6803F40033002B03D0BA693B69D6
:100DC8001343BB61264ABB695360254B9B68BB61D3
:100DD8003B69DB43BA691340BB613B685B6803F45A
:100DE8008013002B03D0BA693B691343BB611C4ACB
:100DF800BB6993601A4BDB68BB613B69DB43BA692B
:100E08001340BB613B685B6803F40013002B03D0FD
:100E1800BA693B691343BB61114ABB69D360FB697B
:100E28000133FB61FB690F2B7FF690AE00BF2437BF
:100E3800BD465DF8047B7047003802400038014029
:100E4800000002400004024000080240000C02407A
:100E5800001002400014024000180240001C02402A
:100E6800003C014080B582B000AF0346FB80084BD0
:100E78005A69FB881340002B06D0054AFB8853614A
:100E8800FB88184600F006F800BF0837BD4680BD4D
:100E9800003C014080B483B000AF0346FB8000BF34
:100EA8000C37BD465DF8047B7047000080B586B0FE
:100EB80000AF78607B68002B01D101235BE27B687F
:100EC8001B6803F00103002B75D0A34B9B6803F04C
:100ED8000C03042B0CD0A04B9B6803F00C03082BCD
:100EE80012D19D4B5B6803F48003B3F5800F0BD1DF
:100EF800994B1B6803F40033002B5BD07B685B685D
:100F0800002B57D1012336E27B685B68B3F5803F3D
:100F180006D1914A904B1B6843F4803313601DE05F
:100F28007B685B68B3F5A02F0CD18B4A8A4B1B6892
:100F380043F480231360884A874B1B6843F480334B
:100F480013600BE0844A844B1B6823F480331360DE
:100F5800814A814B1B6823F4802313607B685B689C
:100F6800002B13D0FFF7C8FC386108E0FFF7C4FC7A
:100F780002463B69D31A642B01D90323FBE1764B64
:100F88001B6803F40033002BF0D014E0FFF7B4FC27
:100F9800386108E0FFF7B0FC02463B69D31A642BBE
:100FA80001D90323E7E16C4B1B6803F40033002BE2
:100FB800F0D100E000BF7B681B6803F00203002B40
:100FC80063D0654B9B6803F00C03002B0BD0624B7E
:100FD8009B6803F00C03082B1CD15F4B5B6803F480
:100FE8008003002B16D15C4B1B6803F00203002B17
:100FF80005D07B68DB68012B01D00123BBE1564992
:10100800554B1B6823F0F8027B681B69DB00134310
:101018000B603AE07B68DB68002B20D04F4B012245
:101028001A60FFF769FC386108E0FFF765FC0246C3
:101038003B69D31A022B01D903239CE1464B1B6859
:1010480003F00203002BF0D04349434B1B6823F005
:10105800F8027B681B69DB0013430B6015E03F4B0C
:1010680000221A60FFF748FC386108E0FFF744FCEB
:1010780002463B69D31A022B01D903237BE1364B85
:101088001B6803F00203002BF0D17B681B6803F098
:101098000803002B30D07B685B69002B16D0304BDF
:1010A80001221A60FFF728FC386108E0FFF724FCEA
:1010B80002463B69D31A022B01D903235BE1264B75
:1010C8005B6F03F00203002BF0D015E0244B0022E5
:1010D8001A60FFF711FC386108E0FFF70DFC0246C3
:1010E8003B69D31A022B01D9032344E11A4B5B6FE6
:1010F80003F00203002BF0D17B681B6803F00403A4
:10110800002B00F0A0800023FB75134B1B6C03F031
:101118008053002B0FD10023BB600F4A0E4B1B6C72
:1011280043F0805313640C4B1B6C03F08053BB607B
:10113800BB680123FB750B4B1B6803F48073002B02
:1011480021D1084A074B1B6843F480731360FFF7EB
:10115800D3FB386111E000BF00380240000047426D
:10116800800E474200700040FFF7C6FB02463B690D
:10117800D31A022B01D90323FDE0814B1B6803F42A
:101188008073002BF0D07B689B68012B06D17D4AC9
:101198007C4B1B6F43F0010313671CE07B689B6863
:1011A800052B0CD1774A774B1B6F43F00403136769
:1011B800744A744B1B6F43F0010313670BE0714AC9
:1011C800704B1B6F23F0010313676E4A6D4B1B6F47
:1011D80023F0040313677B689B68002B15D0FFF787
:1011E8008BFB38610AE0FFF787FB02463B69D31A9D
:1011F80041F28832934201D90323BCE0614B1B6F53
:1012080003F00203002BEED014E0FFF775FB386102
:101218000AE0FFF771FB02463B69D31A41F28832B4
:10122800934201D90323A6E0564B1B6F03F0020338
:10123800002BEED1FB7D012B05D1524A514B1B6C83
:1012480023F0805313647B689B69002B00F0928025
:101258004C4B9B6803F00C03082B5CD07B689B69A4
:10126800022B41D1484B00221A60FFF745FB386139
:1012780008E0FFF741FB02463B69D31A022B01D96C
:10128800032378E03F4B1B6803F00073002BF0D179
:101298003C497B68DA697B681B6A1A437B685B6A2E
:1012A8009B011A437B689B6A5B08013B1B041A433A
:1012B8007B68DB6A1B0613434B60334B01221A60C1
:1012C800FFF71AFB386108E0FFF716FB02463B6997
:1012D800D31A022B01D903234DE02A4B1B6803F0D4
:1012E8000073002BF0D045E0274B00221A60FFF76F
:1012F80003FB386108E0FFF7FFFA02463B69D31A9F
:10130800022B01D9032336E01E4B1B6803F0007340
:10131800002BF0D12EE07B689B69012B01D10123C2
:1013280029E0184B5B68FB60FB6803F480027B686C
:10133800DB699A421CD1FB6803F03F027B681B6A99
:101348009A4215D1FA6847F6C07313407A68526A10
:1013580093420DD1FB6803F440327B689B6A9A4242
:1013680006D1FB6803F070627B68DB6A9A4201D0A1
:10137800012300E0002318461837BD4680BD00BF92
:1013880000700040003802406000474280B584B0D9
:1013980000AF786039607B68002B01D10123CCE075
:1013A800684B1B6803F00F023B689A420CD2654BEE
:1013B8003A68D2B21A70634B1B6803F00F023B689D
:1013C8009A4201D00123B8E07B681B6803F002034E
:1013D800002B20D07B681B6803F00403002B05D08A
:1013E800594A594B9B6843F4E05393607B681B68E8
:1013F80003F00803002B05D0534A534B9B6843F472
:10140800604393605049504B9B6823F0F0027B681F
:101418009B6813438B607B681B6803F00103002BF8
:1014280044D07B685B68012B07D1474B1B6803F4EA
:101438000033002B19D101237FE07B685B68022B06
:1014480003D07B685B68032B07D13F4B1B6803F015
:101458000073002B09D101236FE03B4B1B6803F09D
:101468000203002B01D1012367E03749364B9B6803
:1014780023F003027B685B6813438B60FFF73CFA39
:10148800F8600AE0FFF738FA0246FB68D31A41F21F
:101498008832934201D903234FE02B4B9B6803F01A
:1014A8000C027B685B689B009A42EBD1254B1B685A
:1014B80003F00F023B689A420CD9224B3A68D2B229
:1014C8001A70204B1B6803F00F023B689A4201D048
:1014D800012332E07B681B6803F00403002B08D06B
:1014E8001949194B9B6823F4E0527B68DB68134366
:1014F8008B607B681B6803F00803002B09D0124936
:10150800114B9B6823F460427B681B69DB00134323
:101518008B6000F021F801460B4B9B681B0903F018
:101528000F030A4AD35C21FA03F3094A1360094BF3
:101538001B681846FFF79CF9002318461037BD466C
:1015480080BD00BF003C0240003802405C1F00081C
:1015580000000020040000202DE9F04F87B000AF04
:101568000022FA6000227A610022BA6000223A6101
:10157800514A926802F00C02042A07D0082A08D0BF
:10158800002A40F090804D4B3B618FE04C4B3B6113
:101598008CE0494A526802F03F02FA60464A5268B3
:1015A80002F48002002A23D0434B5B689B094FF06A
:1015B800000440F2FF114FF0000203EA010304EABD
:1015C80002043F4A02FB04F1002202FB03F20A4430
:1015D8003B49A3FB010153181946FB684FF000046F
:1015E8001A462346FEF7ECFD03460C467B614CE0A9
:1015F800314A5268920911464FF0000240F2FF1535
:101608004FF0000605EA010506EA020629463246B9
:101618004FEA421B4BEAD16B4FEA411A51465A46F0
:10162800AA46B34655465E464D1B62EB060629465A
:101638003246940144EA91648B015B1A64EB02041C
:101648004FEAC40949EA53794FEAC30843464C466E
:1016580055465E46ED1846EB04062B463446A20274
:101668007A607A6842EA93527A609B023B6097E814
:10167800180018462146FB684FF000041A46234616
:10168800FEF79EFD03460C467B610B4B5B681B0C0B
:1016980003F0030301335B00BB607A69BB68B2FBEC
:1016A800F3F33B6102E0054B3B6100BF3B69184621
:1016B8001C37BD46BDE8F08F003802400024F40016
:1016C80040787D0180B582B000AF78607B68002BE0
:1016D80001D101231DE07B6893F83D30DBB2002B7C
:1016E80006D17B68002283F83C207868FFF716F85B
:1016F8007B68022283F83D207B681A687B68043384
:101708001946104600F0FAF97B68012283F83D205B
:10171800002318460837BD4680BD80B582B000AFAB
:1017280078607B681B681B6903F00203022B22D1D7
:101738007B681B68DB6803F00203022B1BD17B6804
:101748001B686FF002021A617B6801221A777B68B6
:101758001B689B6903F00303002B03D0786800F033
:10176800AFF905E0786800F0A1F9786800F0B2F9FF
:101778007B6800221A777B681B681B6903F00403E7
:10178800042B22D17B681B68DB6803F00403042B5D
:101798001BD17B681B686FF004021A617B68022208
:1017A8001A777B681B689B6903F44073002B03D08E
:1017B800786800F085F905E0786800F077F97868CE
:1017C80000F088F97B6800221A777B681B681B6920
:1017D80003F00803082B22D17B681B68DB6803F041
:1017E8000803082B1BD17B681B686FF008021A617D
:1017F8007B6804221A777B681B68DB6903F00303A4
:10180800002B03D0786800F05BF905E0786800F0F9
:101818004DF9786800F05EF97B6800221A777B68DA
:101828001B681B6903F01003102B22D17B681B680F
:10183800DB6803F01003102B1BD17B681B686FF06B
:1018480010021A617B6808221A777B681B68DB69BB
:1018580003F44073002B03D0786800F031F905E0F9
:10186800786800F023F9786800F034F97B68002282
:101878001A777B681B681B6903F00103012B0ED1E3
:101888007B681B68DB6803F00103012B07D17B68C9
:101898001B686FF001021A61786800F0FDF87B6838
:1018A8001B681B6903F08003802B0ED17B681B68C3
:1018B800DB6803F08003802B07D17B681B686FF01F
:1018C80080021A61786800F0D9FA7B681B681B6986
:1018D80003F04003402B0ED17B681B68DB6803F0E4
:1018E8004003402B07D17B681B686FF040021A61E8
:1018F800786800F0F9F87B681B681B6903F020031F
:10190800202B0ED17B681B68DB6803F02003202B9B
:1019180007D17B681B686FF020021A61786800F0B5
:10192800A3FA00BF0837BD4680BD80B584B000AFBC
:10193800786039607B6893F83C30012B01D1022331
:10194800A6E07B68012283F83C207B68022283F8AA
:101958003D207B681B689B68FB60FB6823F077036E
:10196800FB60FB6823F47F43FB607B681B68FA68B5
:101978009A603B681B68402B67D0402B0BD8102B14
:1019880073D0102B02D8002B6FD078E0202B6CD0AE
:10199800302B6AD073E0702B0DD0702B04D8502BED
:1019A80033D0602B41D06AE0B3F5805F66D0B3F5E1
:1019B800005F17D063E07B6818683B6899683B68EC
:1019C8005A683B68DB6800F0B3F97B681B689B6862
:1019D800FB60FB6843F07703FB607B681B68FA6871
:1019E8009A604CE07B6818683B6899683B685A685D
:1019F8003B68DB6800F09CF97B681B687A681268B2
:101A0800926842F480429A6039E07B6818683B68C3
:101A180059683B68DB681A4600F010F97B681B6858
:101A28005021184600F069F929E07B6818683B687E
:101A380059683B68DB681A4600F02FF97B681B6819
:101A48006021184600F059F919E07B6818683B686E
:101A580059683B68DB681A4600F0F0F87B681B6839
:101A68004021184600F049F909E07B681A683B688C
:101A78001B681946104600F040F900E000BF7B687B
:101A8800012283F83D207B68002283F83C20002354
:101A980018461037BD4680BD80B483B000AF78606B
:101AA80000BF0C37BD465DF8047B704780B483B037
:101AB80000AF786000BF0C37BD465DF8047B704707
:101AC80080B483B000AF786000BF0C37BD465DF8C6
:101AD800047B704780B483B000AF786000BF0C37D8
:101AE800BD465DF8047B704780B483B000AF786072
:101AF80000BF0C37BD465DF8047B704780B485B0E5
:101B080000AF786039607B681B68FB607B68404A7F
:101B1800934213D07B68B3F1804F0FD07B683D4A66
:101B280093420BD07B683C4A934207D07B683B4A80
:101B3800934203D07B683A4A934208D1FB6823F06A
:101B48007003FB603B685B68FA681343FB607B6863
:101B58002F4A93422BD07B68B3F1804F27D07B6804
:101B68002C4A934223D07B682B4A93421FD07B6830
:101B78002A4A93421BD07B68294A934217D07B6834
:101B8800284A934213D07B68274A93420FD07B6838
:101B9800264A93420BD07B68254A934207D07B683C
:101BA800244A934203D07B68234A934208D1FB68B6
:101BB80023F44073FB603B68DB68FA681343FB60FF
:101BC800FB6823F080023B685B691343FB607B681A
:101BD800FA681A603B689A687B68DA623B681A6838
:101BE8007B689A627B680A4A934203D07B680C4AF6
:101BF800934203D13B681A697B681A637B680122A8
:101C08005A6100BF1437BD465DF8047B704700BFBA
:101C1800000001400004004000080040000C0040A3
:101C280000040140004001400044014000480140D8
:101C380000180040001C00400020004080B487B01D
:101C480000AFF860B9607A60FB681B6A7B61FB686B
:101C58001B6A23F00102FB681A62FB689B693B61FF
:101C68003B6923F0F0033B617B681B013A6913432E
:101C78003B617B6923F00A037B617A69BB68134384
:101C88007B61FB683A699A61FB687A691A6200BFEE
:101C98001C37BD465DF8047B704780B487B000AF41
:101CA800F860B9607A60FB681B6A23F01002FB6871
:101CB8001A62FB689B697B61FB681B6A3B617B69F5
:101CC80023F470437B617B681B037A6913437B6150
:101CD8003B6923F0A0033B61BB681B013A691343CE
:101CE8003B61FB687A699A61FB683A691A6200BFCE
:101CF8001C37BD465DF8047B704780B485B000AFE3
:101D0800786039607B689B68FB60FB6823F0700330
:101D1800FB603A68FB68134343F00703FB607B688A
:101D2800FA689A6000BF1437BD465DF8047B7047B7
:101D380080B487B000AFF860B9607A603B60FB6838
:101D48009B687B617B6923F47F437B613B681A0254
:101D58007B681A43BB6813437A6913437B61FB684A
:101D68007A699A6000BF1C37BD465DF8047B7047EE
:101D780080B485B000AF786039607B6893F83C30F8
:101D8800012B01D102235AE07B68012283F83C2011
:101D98007B68022283F83D207B681B685B68FB60D8
:101DA8007B681B689B68BB60FB6823F07003FB6063
:101DB8003B681B68FA681343FB607B681B68FA681A
:101DC8005A607B681B68214A934222D07B681B6853
:101DD800B3F1804F1DD07B681B681D4A934218D011
:101DE8007B681B681B4A934213D07B681B681A4A9E
:101DF80093420ED07B681B68184A934209D07B68CF
:101E08001B68174A934204D07B681B68154A9342A3
:101E18000CD1BB6823F08003BB603B685B68BA6881
:101E28001343BB607B681B68BA689A607B680122B1
:101E380083F83D207B68002283F83C200023184665
:101E48001437BD465DF8047B704700BF00000140B1
:101E58000004004000080040000C0040000401405D
:101E6800004001400018004080B483B000AF7860A3
:101E780000BF0C37BD465DF8047B704780B483B063
:101E880000AF786000BF0C37BD465DF8047B704733
:101E9800DFF834D0002103E00C4B5B584350043189
:101EA8000B480C4B42189A42F6D30B4A02E0002327
:101EB80042F8043B094B9A42F9D3FEF7A1FC00F023
:101EC80011F8FEF705FB7047000002207C1F000890
:101ED800000000200C0000200C00002070000020F2
:101EE800FEE7000070B50D4E0D4CA41BA410002594
:101EF800A54209D10B4E0C4C00F020F8A41BA410ED
:101F08000025A54205D170BD56F825309847013502
:101F1800EEE756F8253098470135F2E7741F0008B8
:101F2800741F0008741F0008781F00080244034645
:101F3800934200D1704703F8011BF9E7F8B500BFD9
:101F4800F8BC08BC9E467047F8B500BFF8BC08BC92
:041F58009E467047EA
:101F5C00000000000000000001020304060708094D
:081F6C008CE2FF7F0100000080
:041F7400AD010008B3
:041F780089010008D3
:0C1F7C000024F400100000000100000030
:0400000508001E9938
:00000001FF
