:020000040800F2
:1000000000000220A92500088D08000893080008B8
:10001000990800089F080008A508000800000000D3
:10002000000000000000000000000000AB08000815
:10003000B908000800000000C7080008D50800083B
:10004000F9250008F9250008F9250008F925000818
:10005000F9250008F9250008E1080008F92500083D
:10006000F9250008F9250008F9250008F9250008F8
:10007000F9250008F9250008F9250008F9250008E8
:10008000F9250008F9250008F9250008F9250008D8
:1000900049090008F9250008F9250008F925000894
:1000A000F9250008F9250008F9250008F9250008B8
:1000B000F9250008F9250008F9250008F9250008A8
:1000C000F9250008F9250008F9250008F925000898
:1000D000F9250008F9250008F9250008F925000888
:1000E000F9250008F9250008F9250008F925000878
:1000F000F9250008F9250008F9250008F925000868
:10010000F9250008F9250008F9250008F925000857
:10011000F9250008F9250008F9250008F925000847
:10012000F9250008F9250008F9250008F925000837
:10013000F9250008F9250008F9250008F925000827
:10014000F9250008F9250008F9250008F925000817
:10015000F9250008F9250008F9250008F925000807
:10016000F9250008F9250008F9250008F9250008F7
:10017000F9250008F9250008F9250008000000000D
:08018000F9250008F92500082B
:1001880010B5054C237833B9044B13B10448AFF3C9
:1001980000800123237010BD0C0000200000000027
:1001A8005426000808B5034B1BB103490348AFF3B5
:1001B800008008BD00000000100000205426000840
:1001C80053B94AB9002908BF00281CBF4FF0FF31B6
:1001D8004FF0FF3000F07AB9ADF1080C6DE904CEAC
:1001E80000F006F8DDF804E0DDE9022304B070470A
:1001F8002DE9F0478C460D460446089E002B51D148
:100208008A4217466DD9B2FA82FEBEF1000F0BD0B2
:10021800CEF1200C01FA0EF520FA0CFC02FA0EF7CA
:100228004CEA050C00FA0EF44FEA174A250CBCFB01
:10023800FAF81FFA87F90AFB18CC45EA0C4508FBBF
:1002480009F3AB420AD9ED1908F1FF3280F0238196
:10025800AB4240F22081A8F102083D44ED1AA4B255
:10026800B5FBFAF00AFB105544EA054400FB09F90E
:10027800A14509D9E41900F1FF3380F00A81A145AD
:1002880040F2078102383C44A4EB090440EA0840E4
:100298000021002E61D024FA0EF40023346073602C
:1002A800BDE8F0878B4207D9002E54D0002186E89C
:1002B80021000846BDE8F087B3FA83F1002940F031
:1002C8008E80AB4202D3824200F2FA80841A65EB38
:1002D80003050120AC46002E3FD086E81010BDE88B
:1002E800F08712B90127B7FBF2F7B7FA87FEBEF11C
:1002F800000F34D1EB1B3A0C1FFA87FC0121B3FB2A
:10030800F2F8250C02FB183345EA03450CFB08F309
:10031800AB4207D9ED1908F1FF3002D2AB4200F227
:10032800D1808046ED1AA3B2B5FBF2F002FB10555E
:1003380043EA05440CFB00FCA44507D9E41900F185
:10034800FF3302D2A44500F2B8801846A4EB0C048F
:1003580040EA08409DE731463046BDE8F087CEF1D7
:10036800200405FA0EF307FA0EF720FA04F83A0CFF
:1003780025FA04F448EA0308B4FBF2F14FEA1845F9
:1003880002FB11441FFA87FC45EA044501FB0CF304
:10039800AB4200FA0EF409D9ED1901F1FF3080F0F3
:1003A8008A80AB4240F2878002393D44EB1A1FFA3B
:1003B80088F5B3FBF2F002FB103345EA034500FB76
:1003C8000CF3AB4207D9ED1900F1FF386FD2AB42FD
:1003D8006DD902383D44EB1A40EA01418FE7C1F17B
:1003E800200722FA07F88B4005FA01F448EA0303CC
:1003F80020FA07FE4FEA134CFD404EEA040EB5FB07
:10040800FCF94FEA1E440CFB19551FFA83F844EA1D
:10041800054509FB08F4AC4202FA01F200FA01FAB8
:1004280008D9ED1809F1FF3043D2AC4241D9A9F1FE
:1004380002091D442D1B1FFA8EFEB5FBFCF00CFBB8
:1004480010554EEA054400FB08F8A04507D9E41802
:1004580000F1FF3529D2A04527D902381C4440EACB
:100468000940A4EB0804A0FB02894C45C6464D464A
:1004780015D312D056B1BAEB0E0364EB050404FA97
:1004880007F7CB401F43CC40376074600021BDE8BC
:10049800F0871846F8E69046E0E6C245EAD2B8EB9F
:1004A800020E69EB03050138E4E72846D7E7404622
:1004B80091E78146BEE7014678E702383C4445E7C4
:1004C800084608E7A8F102083D442BE7704700BF3B
:1004D80080B500AF00F064FA00F040F800F0DEF8F4
:1004E80000F0A6F8194800F0A7FC0221174800F010
:1004F800D0FE174B01221A61154B04229A60144B47
:100508000022DA60124B134A5A60134B01221A6216
:10051800114B00225A61104B00221A610E4B002227
:100528001A600D4B00225A600B4B00229A600A4B4E
:100538000022DA60084B00229A61074B0122DA6137
:100548000549024800F098FBFEE700BF7400002050
:100558009C0000201090BF1F2C00002080B594B094
:1005680000AF07F1200330220021184602F066F898
:1005780007F10C0300221A605A609A60DA601A6167
:100588000023BB60284A284B1B6C43F0805313643C
:10059800254B1B6C03F08053BB60BB6800237B605A
:1005A800224A224B1B6843F4804313601F4B1B688D
:1005B80003F480437B607B6801233B624FF4803304
:1005C8007B620223BB634FF48003FB6304233B6419
:1005D800A8237B640223BB640423FB6407F1200384
:1005E800184601F0AFFB0346002B01D000F0CEF80F
:1005F8000F23FB6002233B6100237B614FF4A05370
:10060800BB614FF48053FB6107F10C0305211846C9
:1006180001F008FE0346002B01D000F0B7F800BF38
:100628005037BD4680BD00BF003802400070004012
:1006380080B500AF174B184A1A60164B15225A603E
:10064800144B00229A60134B0022DA60114B4FF4CE
:1006580010221A610F4B4FF480025A610D4B002291
:100668001A760C4B00225A760A4B00229A76094BCE
:100678000022DA76074B00221A77064B00225A77B7
:10068800044800F0FFF90346002B01D000F07EF883
:1006980000BF80BD740000200064004080B58AB0AF
:1006A80000AF07F1140300221A605A609A60DA60FA
:1006B8001A6100233B61314A304B1B6B43F08003C6
:1006C80013632E4B1B6B03F080033B613B690023D4
:1006D800FB602A4A294B1B6B43F001031363274B2A
:1006E8001B6B03F00103FB60FB680023BB60234A1C
:1006F800224B1B6B43F008031363204B1B6B03F067
:100708000803BB60BB6800237B601C4A1B4B1B6B48
:1007180043F002031363194B1B6B03F002037B6066
:100728007B6800224FF47041154801F0CDFA01238F
:100738007B61144BBB610023FB6107F1140319466D
:10074800114801F00FF94FF470437B610123BB613D
:100758000023FB6100233B6207F114031946084894
:1007680001F000F900220021062001F0C4F806205B
:1007780001F0DDF800BF2837BD4680BD00380240D3
:10078800000C0240000011100000024080B400AFCD
:1007980072B6FEE780B582B000AF00237B60104AD6
:1007A8000F4B5B6C43F4804353640D4B5B6C03F459
:1007B80080437B607B6800233B60094A084B1B6CC5
:1007C80043F080531364064B1B6C03F080533B606B
:1007D8003B68072001F084F800BF0837BD4680BD9C
:1007E8000038024080B58AB000AF786007F1140382
:1007F80000221A605A609A60DA601A617B681B6886
:100808001D4A934234D100233B611C4A1B4B1B6C8D
:1008180043F000731364194B1B6C03F000733B61C6
:100828003B690023FB60154A144B1B6B43F0020322
:100838001363124B1B6B03F00203FB60FB684FF45E
:1008480040737B610223BB610023FB6103233B628E
:1008580009237B6207F114031946094801F082F85D
:1008680001220021142001F046F8142001F05FF85D
:1008780000BF2837BD4680BD0064004000380240F4
:100888000004024080B400AFFEE780B400AFFEE78A
:1008980080B400AFFEE780B400AFFEE780B400AFDD
:1008A800FEE780B400AF00BFBD465DF8047B70472B
:1008B80080B400AF00BFBD465DF8047B704780B4CC
:1008C80000AF00BFBD465DF8047B704780B500AF40
:1008D80000F0B8F800BF80BD80B582B000AF00233B
:1008E8007B6002E07B6801337B607B680E4A934241
:1008F800F8DD012001F002FA01210C4801F0CCF9E1
:100908000346002B0BD00A4B1B780133DAB2084B95
:100918001A70084B064A0849084800F0D1FA00BF87
:100928000837BD4680BD00BF3F420F0000000240AF
:1009380028000020540000209C00002074000020A3
:1009480080B500AF074800F0CAFC074B074A0021F2
:10095800044800F08CFB064B034A127812035A61D4
:1009680000BF80BD7400002029000020580000202E
:10097800000C024080B400AF084A084BD3F8883016
:1009880043F47003C2F88830044B4FF000629A6059
:1009980000BFBD465DF8047B704700BF00ED00E076
:1009A80080B500AF0E4A0E4B1B6843F4007313600A
:1009B8000B4A0B4B1B6843F480631360084A084BCF
:1009C8001B6843F480731360032000F089FF002044
:1009D80000F008F8FFF7DEFE0023184680BD00BFD0
:1009E800003C024080B582B000AF7860124B1A68B4
:1009F800124B1B7819464FF47A73B3FBF1F3B2FB31
:100A0800F3F3184600F0A1FF0346002B01D00123A1
:100A18000EE07B680F2B0AD8002279684FF0FF3070
:100A280000F069FF064A7B681360002300E0012399
:100A380018460837BD4680BD000000200800002089
:100A48000400002080B400AF064B1B781A46064B02
:100A58001B681344044A136000BFBD465DF8047B5D
:100A6800704700BF08000020B400002080B400AF29
:100A7800034B1B681846BD465DF8047B704700BFF2
:100A8800B400002080B584B000AF78607B68002B8C
:100A980001D10123ECE07B6893F82030DBB2002B16
:100AA80002D17868FFF79EFE7B681B687A68126837
:100AB800126822F002021A60FFF7D8FFF86012E00D
:100AC800FFF7D4FF0246FB68D31A0A2B0BD97B68C1
:100AD8005B6A43F400327B685A627B68052283F8BC
:100AE80020200123C4E07B681B685B6803F00203D5
:100AF800002BE5D17B681B687A681268126842F09F
:100B080001021A60FFF7B2FFF86012E0FFF7AEFFCC
:100B18000246FB68D31A0A2B0BD97B685B6A43F43D
:100B280000327B685A627B68052283F82020012303
:100B38009EE07B681B685B6803F00103002BE5D02F
:100B48007B681B7E012B08D17B681B687A6812685A
:100B5800126842F080021A6007E07B681B687A68B6
:100B68001268126822F080021A607B685B7E012B93
:100B780008D17B681B687A681268126842F04002E4
:100B88001A6007E07B681B687A681268126822F0AE
:100B980040021A607B689B7E012B08D17B681B682A
:100BA8007A681268126842F020021A6007E07B68CF
:100BB8001B687A681268126822F020021A607B6843
:100BC800DB7E012B08D17B681B687A681268126883
:100BD80022F010021A6007E07B681B687A681268C6
:100BE800126842F010021A607B681B7F012B08D143
:100BF8007B681B687A681268126842F008021A60FB
:100C080007E07B681B687A681268126822F008029D
:100C18001A607B685B7F012B08D17B681B687A6848
:100C28001268126842F004021A6007E07B681B68C9
:100C38007A681268126822F004021A607B681B68DE
:100C48007A6891687A68D26811437A6812691143A0
:100C58007A68526911437A685268013A0A43DA613C
:100C68007B6800225A627B68012283F820200023D7
:100C780018461037BD4680BD80B487B000AF786095
:100C880039607B681B687B617B6893F82030FB7454
:100C9800FB7C012B03D0FB7C022B40F0BE80654B14
:100CA8007B617B69D3F8003243F001027B69C3F8AA
:100CB80000227B69D3F8003223F47C527B69C3F8A5
:100CC80000227B69D3F800223B685B6A1B021A4347
:100CD8007B69C3F800223B685B6903F01F030122AC
:100CE80002FA03F3FB607B69D3F81C22FB68DB4341
:100CF8001A407B69C3F81C223B68DB69002B23D1AF
:100D08007B69D3F80C22FB68DB431A407B69C3F884
:100D18000C223B685A693B68DB6819043B685B68CE
:100D28009BB219437B69483243F832103B685B69D0
:100D38003A68926811043A68126892B20A4379696B
:100D48004833DB000B445A603B68DB69012B22D136
:100D58007B69D3F80C22FB681A437B69C3F80C2221
:100D68003B685A693B681B6819043B685B689BB21F
:100D780019437B69483243F832103B685B693A682B
:100D8800926811043A68D26892B20A437969483382
:100D9800DB000B445A603B689B69002B09D17B69D7
:100DA800D3F80422FB68DB431A407B69C3F80422AA
:100DB80007E07B69D3F80422FB681A437B69C3F810
:100DC80004223B681B69002B09D17B69D3F81422E4
:100DD800FB68DB431A407B69C3F8142207E07B6990
:100DE800D3F81422FB681A437B69C3F814223B68C2
:100DF8001B6A012B07D17B69D3F81C22FB681A43B5
:100E08007B69C3F81C227B69D3F8003223F0010206
:100E18007B69C3F80022002306E07B685B6A43F421
:100E280080227B685A62012318461C37BD465DF84C
:100E3800047B70470064004080B584B000AF7860E0
:100E48007B6893F82030DBB2012B2ED17B6802221D
:100E580083F820207B681B687A681268126822F081
:100E680001021A60FFF702FEF86012E0FFF7FEFDCC
:100E78000246FB68D31A0A2B0BD97B685B6A43F4DA
:100E880000327B685A627B68052283F820200123A0
:100E980012E07B681B685B6803F00103002BE5D157
:100EA8007B6800225A62002306E07B685B6A43F491
:100EB80000227B685A62012318461037BD4680BD60
:100EC80080B489B000AFF860B9607A603B60FB68B5
:100ED80093F82030FB77FB681B689B68BB61FB7F3E
:100EE800012B03D0FB7F022B40F0B480BB6903F0D9
:100EF8008063002B0AD1BB6903F00063002B05D186
:100F0800BB6903F08053002B00F09C80BB691B0E6B
:100F180003F003037B617B69022B07D9FB685B6ADB
:100F280043F40002FB685A6201239AE001227B69BC
:100F38009A403B681A60BB689B68002B0DD1FB6820
:100F48001968BB681B685A05BB68DB681A437B696C
:100F580018331B010B441A600FE0FB681968BB6863
:100F68005B68DA00BB689B681A43BB68DB681A4396
:100F78007B6918331B010B441A60FB681968BB684E
:100F88001A697B6918331B010B4404331A60BB6868
:100F98001B7D012B11D1FB681968FB681A687B69F6
:100FA80018331B01134404331B6843F480727B69B4
:100FB80018331B010B4404331A60FB6819687B68FB
:100FC80007331B781A067B6806331B781B041A4301
:100FD8007B6805331B781B0213437A680432127846
:100FE8001A437B691B010B4403F5C6731A60FB683F
:100FF80019687B6803331B781A067B6802331B78F1
:101008001B041A437B6801331B781B0213437A685D
:1010180012781A437B691B010B4403F5C4731A60E9
:10102800FB681968FB681A687B6918331B0113444D
:101038001B6843F001027B6918331B010B441A60DB
:1010480000230EE0FB685B6A43F40012FB685A62F7
:10105800012306E0FB685B6A43F48022FB685A625E
:10106800012318462437BD465DF8047B704780B4D9
:1010780087B000AFF860B9607A603B60FB6893F8AE
:101088002030FB75FB7D012B03D0FB7D022B40F04C
:10109800F380BB68002B0ED1FB681B68DB6803F08C
:1010A8000303002B16D1FB685B6A43F40012FB684C
:1010B8005A620123E7E0FB681B681B6903F003031E
:1010C800002B07D1FB685B6A43F40012FB685A6285
:1010D8000123D8E0FB681A68BB681B331B01134463
:1010E8001B6803F004027B689A607B689B68002B8E
:1010F8000CD1FB681A68BB681B331B0113441B68BF
:101108005B0DC3F30A027B681A600BE0FB681A6880
:10111800BB681B331B0113441B68DB0823F06042C8
:101128007B685A60FB681A68BB681B331B01134451
:101138001B6803F002027B68DA60FB681A68BB6808
:101148001B331B01134404331B6803F00F027B6835
:101158001A61FB681A68BB681B331B01134404330C
:101168001B681B0ADAB27B689A61FB681A68BB685D
:101178001B331B01134404331B681B0C9AB27B6896
:101188005A61FB681A68BB681B01134403F5DC73DA
:101198001B68DAB23B681A703B680133FA68116859
:1011A800BA6812010A4402F5DC721268120AD2B255
:1011B8001A703B680233FA681168BA6812010A4467
:1011C80002F5DC721268120CD2B21A703B68033353
:1011D800FA681168BA6812010A4402F5DC721268EA
:1011E800120ED2B21A703B680433FA681168BA68F2
:1011F80012010A4402F5DE721268D2B21A703B6814
:101208000533FA681168BA6812010A4402F5DE72F9
:101218001268120AD2B21A703B680633FA6811686B
:10122800BA6812010A4402F5DE721268120CD2B2D0
:101238001A703B680733FA681168BA6812010A44E1
:1012480002F5DE721268120ED2B21A70BB68002B59
:1012580008D1FB681B68FA681268D26842F020025D
:10126800DA6007E0FB681B68FA681268126942F0E6
:1012780020021A61002306E0FB685B6A43F48022BF
:10128800FB685A62012318461C37BD465DF8047B8B
:10129800704780B485B000AF786039607B6893F898
:1012A8002030FB73FB7B012B02D0FB7B022B09D187
:1012B8007B681B687A68126851693A680A435A6100
:1012C800002306E07B685B6A43F480227B685A62ED
:1012D800012318461437BD465DF8047B704780B576
:1012E8008AB000AF786000237B627B681B685B690B
:1012F8003B627B681B685B68FB617B681B689B685B
:10130800BB617B681B68DB687B617B681B681B694A
:101318003B617B681B689B69FB603B6A03F00103C8
:10132800002B7CD0BB6903F00103002B23D07B6822
:101338001B6801229A60BB6903F00203002B03D0EB
:10134800786800F07DF916E0BB6903F00403002B10
:1013580004D07B6A43F400637B620CE0BB6903F052
:101368000803002B04D07B6A43F480537B6202E0BD
:10137800786800F083F9BB6903F48073002B24D0EC
:101388007B681B684FF480729A60BB6903F4007332
:10139800002B03D0786800F05DF916E0BB6903F410
:1013A8008063002B04D07B6A43F400537B620CE01B
:1013B800BB6903F40063002B04D07B6A43F48043C9
:1013C8007B6202E0786800F063F9BB6903F480335C
:1013D800002B24D07B681B684FF480329A60BB696D
:1013E80003F40033002B03D0786800F03DF916E0D1
:1013F800BB6903F48023002B04D07B6A43F40043C9
:101408007B620CE0BB6903F40023002B04D07B6AE9
:1014180043F480337B6202E0786800F043F93B6A6A
:1014280003F00803002B0CD07B6903F01003002B9A
:1014380007D07B6A43F400737B627B681B681022C9
:10144800DA603B6A03F00403002B0BD07B6903F0DE
:101458000803002B06D07B681B680822DA607868CE
:1014680000F034F93B6A03F00203002B09D07B68D3
:101478001B68DB6803F00303002B02D0786800F0D8
:101488001BF93B6A03F04003002B0CD03B6903F0C7
:101498001003002B07D07B6A43F480637B627B6870
:1014A8001B6810221A613B6A03F02003002B0BD043
:1014B8003B6903F00803002B06D07B681B680822F1
:1014C8001A61786800F016F93B6A03F01003002BE4
:1014D80009D07B681B681B6903F00303002B02D04B
:1014E800786800F0FDF83B6A03F40033002B0BD05A
:1014F800FB6903F01003002B06D07B681B681022E1
:101508005A60786800F000F93B6A03F48033002BD6
:101518000BD0FB6903F00803002B06D07B681B681F
:1015280008225A60786800F0F9F83B6A03F400432F
:10153800002B75D0FB6903F00403002B6CD03B6AC9
:1015480003F48073002B08D0FB6803F00103002B21
:1015580003D07B6A43F001037B623B6A03F40073A8
:10156800002B08D0FB6803F00203002B03D07B6A32
:1015780043F002037B623B6A03F48063002B08D0CC
:10158800FB6803F00403002B03D07B6A43F00403D9
:101598007B623B6A03F40063002B3DD0FB6803F0D9
:1015A8007003002B38D0FB6803F07003302B17D082
:1015B800302B04D8102B09D0202B0CD024E0502B32
:1015C80018D0602B1BD0402B0FD01DE07B6A43F056
:1015D80008037B6218E07B6A43F010037B6213E028
:1015E8007B6A43F020037B620EE07B6A43F0400392
:1015F8007B6209E07B6A43F080037B6204E07B6ADC
:1016080043F480737B6200BF7B681B687A6812684A
:10161800926922F070029A617B681B6804225A6002
:101628007B6A002B08D07B685A6A7B6A1A437B68FE
:101638005A62786800F07CF800BF2837BD4680BD44
:1016480080B483B000AF786000BF0C37BD465DF84A
:10165800047B704780B483B000AF786000BF0C375C
:10166800BD465DF8047B704780B483B000AF7860F6
:1016780000BF0C37BD465DF8047B704780B483B06B
:1016880000AF786000BF0C37BD465DF8047B70473B
:1016980080B483B000AF786000BF0C37BD465DF8FA
:1016A800047B704780B483B000AF786000BF0C370C
:1016B800BD465DF8047B704780B483B000AF7860A6
:1016C80000BF0C37BD465DF8047B704780B483B01B
:1016D80000AF786000BF0C37BD465DF8047B7047EB
:1016E80080B483B000AF786000BF0C37BD465DF8AA
:1016F800047B704780B483B000AF786000BF0C37BC
:10170800BD465DF8047B704780B483B000AF786055
:1017180000BF0C37BD465DF8047B704780B483B0CA
:1017280000AF786000BF0C37BD465DF8047B70479A
:1017380080B483B000AF786000BF0C37BD465DF859
:10174800047B704780B485B000AF78607B6803F095
:101758000703FB600C4BDB68BB60BA684FF6FF03FE
:101768001340BB60FB681A02BB68134343F0BF63B6
:1017780043F40033BB60044ABB68D36000BF14372E
:10178800BD465DF8047B704700ED00E080B400AF13
:10179800044BDB681B0A03F007031846BD465DF8D7
:1017A800047B704700ED00E080B483B000AF0346CF
:1017B800FB7197F90730002B0BDB094997F90730C4
:1017C8005B09FA7902F01F02012000FA02F241F8DF
:1017D800232000BF0C37BD465DF8047B704700BF6F
:1017E80000E100E080B483B000AF03463960FB71CC
:1017F80097F90730002B0ADB0D4997F907303A684B
:10180800D2B21201D2B20B4483F800230AE009498C
:10181800FB7903F00F03043B3A68D2B21201D2B24B
:101828000B441A7600BF0C37BD465DF8047B704741
:1018380000E100E000ED00E080B489B000AFF8609E
:10184800B9607A60FB6803F00703FB61FB69C3F1C9
:101858000703042B28BF0423BB61FB690433062B51
:1018680002D9FB69033B00E000237B610122BB69CD
:1018780002FA03F35A1EBB681A407B699A40012199
:101888007B6901FA03F3591E7B680B401343184622
:101898002437BD465DF8047B7047000080B582B0F0
:1018A80000AF78607B68013BB3F1807F01D30123EF
:1018B8000FE00A4A7B68013B53600F214FF0FF306D
:1018C800FFF790FF054B00229A60044B07221A602D
:1018D800002318460837BD4680BD00BF10E000E071
:1018E80080B582B000AF78607868FFF72BFF00BF43
:1018F8000837BD4680BD80B586B000AF0346B960E5
:101908007A60FB7300237B61FFF740FF78617A6898
:10191800B9687869FFF790FF024697F90F301146CA
:101928001846FFF75FFF00BF1837BD4680BD80B57A
:1019380082B000AF0346FB7197F907301846FFF7EE
:1019480033FF00BF0837BD4680BD80B582B000AF09
:1019580078607868FFF7A2FF034618460837BD4647
:1019680080BD000080B489B000AF78603960002382
:101978007B6100233B610023BB610023FB616BE1BA
:101988000122FB6902FA03F37B613B681A687B69F1
:1019980013403B613A697B699A4240F05A813B683F
:1019A8005B68012B0BD03B685B68022B07D03B6858
:1019B8005B68112B03D03B685B68122B30D17B68C6
:1019C8009B68BB61FB695B00032202FA03F3DB43FC
:1019D800BA691340BB613B68DA68FB695B0002FACD
:1019E80003F3BA691343BB617B68BA699A607B6881
:1019F8005B68BB610122FB6902FA03F3DB43BA6946
:101A08001340BB613B685B681B0903F00102FB697B
:101A180002FA03F3BA691343BB617B68BA695A6077
:101A28007B68DB68BB61FB695B00032202FA03F396
:101A3800DB43BA691340BB613B689A68FB695B008A
:101A480002FA03F3BA691343BB617B68BA69DA60C7
:101A58003B685B68022B03D03B685B68122B23D181
:101A6800FB69DA087B68083253F82230BB61FB69EE
:101A780003F007039B000F2202FA03F3DB43BA6962
:101A88001340BB613B681A69FB6903F007039B00BD
:101A980002FA03F3BA691343BB61FB69DA087B688E
:101AA8000832B96943F822107B681B68BB61FB697F
:101AB8005B00032202FA03F3DB43BA691340BB61FC
:101AC8003B685B6803F00302FB695B0002FA03F3FF
:101AD800BA691343BB617B68BA691A603B685B6883
:101AE80003F08053002B00F0B4800023FB605F4AB2
:101AF8005E4B5B6C43F4804353645C4B5B6C03F458
:101B08008043FB60FB685A4AFB699B08023352F822
:101B18002330BB61FB6903F003039B000F2202FA29
:101B280003F3DB43BA691340BB617B68514A9342B4
:101B38002BD07B68504A934225D07B684F4A93420A
:101B48001FD07B684E4A934219D07B684D4A934216
:101B580013D07B684C4A93420DD07B684B4A934222
:101B680007D07B684A4A934201D107230EE0082335
:101B78000CE006230AE0052308E0042306E003231B
:101B880004E0022302E0012300E00023FA6902F0E6
:101B9800030292009340BA691343BB613449FB695D
:101BA8009B080233BA6941F823203A4B1B68BB6192
:101BB8003B69DB43BA691340BB613B685B6803F46C
:101BC8008033002B03D0BA693B691343BB61314AA8
:101BD800BB6913602F4B5B68BB613B69DB43BA6928
:101BE8001340BB613B685B6803F40033002B03D0F0
:101BF800BA693B691343BB61264ABB695360254BED
:101C08009B68BB613B69DB43BA691340BB613B68B6
:101C18005B6803F48013002B03D0BA693B69134354
:101C2800BB611C4ABB6993601A4BDB68BB613B69AB
:101C3800DB43BA691340BB613B685B6803F400137C
:101C4800002B03D0BA693B691343BB61114ABB69D6
:101C5800D360FB690133FB61FB690F2B7FF690AE04
:101C680000BF2437BD465DF8047B7047003802404A
:101C78000038014000000240000402400008024011
:101C8800000C0240001002400014024000180240FC
:101C9800001C0240003C014080B485B000AF786071
:101CA8000B467B807B681A697B881340002B02D027
:101CB8000123FB7301E00023FB73FB7B18461437F9
:101CC800BD465DF8047B704780B483B000AF786090
:101CD8000B467B8013467B707B78002B03D07A8879
:101CE8007B689A6103E07B881A047B689A6100BF6D
:101CF8000C37BD465DF8047B7047000080B582B0A4
:101D080000AF0346FB80084B5A69FB881340002B41
:101D180006D0054AFB885361FB88184600F006F890
:101D280000BF0837BD4680BD003C014080B483B089
:101D380000AF0346FB8000BF0C37BD465DF8047B4F
:101D48007047000080B586B000AF78607B68002BD4
:101D580001D101235BE27B681B6803F00103002BC0
:101D680075D0A34B9B6803F00C03042B0CD0A04B3D
:101D78009B6803F00C03082B12D19D4B5B6803F49E
:101D88008003B3F5800F0BD1994B1B6803F4003324
:101D9800002B5BD07B685B68002B57D1012336E2B0
:101DA8007B685B68B3F5803F06D1914A904B1B680E
:101DB80043F4803313601DE07B685B68B3F5A02FA4
:101DC8000CD18B4A8A4B1B6843F480231360884AE2
:101DD800874B1B6843F4803313600BE0844A844BC1
:101DE8001B6823F480331360814A814B1B6823F4FA
:101DF800802313607B685B68002B13D0FEF736FEE8
:101E0800386108E0FEF732FE02463B69D31A642BBC
:101E180001D90323FBE1764B1B6803F40033002B45
:101E2800F0D014E0FEF722FE386108E0FEF71EFE4F
:101E380002463B69D31A642B01D90323E7E16C4BB3
:101E48001B6803F40033002BF0D100E000BF7B686F
:101E58001B6803F00203002B63D0654B9B6803F0FB
:101E68000C03002B0BD0624B9B6803F00C03082B70
:101E78001CD15F4B5B6803F48003002B16D15C4BCD
:101E88001B6803F00203002B05D07B68DB68012B7D
:101E980001D00123BBE15649554B1B6823F0F802DA
:101EA8007B681B69DB0013430B603AE07B68DB68E7
:101EB800002B20D04F4B01221A60FEF7D7FD386166
:101EC80008E0FEF7D3FD02463B69D31A022B01D97D
:101ED80003239CE1464B1B6803F00203002BF0D060
:101EE8004349434B1B6823F0F8027B681B69DB00FE
:101EF80013430B6015E03F4B00221A60FEF7B6FD56
:101F0800386108E0FEF7B2FD02463B69D31A022B9E
:101F180001D903237BE1364B1B6803F00203002B36
:101F2800F0D17B681B6803F00803002B30D07B6876
:101F38005B69002B16D0304B01221A60FEF796FD24
:101F4800386108E0FEF792FD02463B69D31A022B7E
:101F580001D903235BE1264B5B6F03F00203002BDF
:101F6800F0D015E0244B00221A60FEF77FFD38619F
:101F780008E0FEF77BFD02463B69D31A022B01D924
:101F8800032344E11A4B5B6F03F00203002BF0D1EB
:101F98007B681B6803F00403002B00F0A08000237B
:101FA800FB75134B1B6C03F08053002B0FD10023E0
:101FB800BB600F4A0E4B1B6C43F0805313640C4BF1
:101FC8001B6C03F08053BB60BB680123FB750B4B94
:101FD8001B6803F48073002B21D1084A074B1B6848
:101FE80043F480731360FEF741FD386111E000BFD0
:101FF8000038024000004742800E4742007000400F
:10200800FEF734FD02463B69D31A022B01D903239C
:10201800FDE0814B1B6803F48073002BF0D07B68D4
:102028009B68012B06D17D4A7C4B1B6F43F0010353
:1020380013671CE07B689B68052B0CD1774A774BAC
:102048001B6F43F004031367744A744B1B6F43F010
:10205800010313670BE0714A704B1B6F23F00103F8
:1020680013676E4A6D4B1B6F23F0040313677B687D
:102078009B68002B15D0FEF7F9FC38610AE0FEF7E3
:10208800F5FC02463B69D31A41F28832934201D9E2
:102098000323BCE0614B1B6F03F00203002BEED05F
:1020A80014E0FEF7E3FC38610AE0FEF7DFFC0246C5
:1020B8003B69D31A41F28832934201D90323A6E03F
:1020C800564B1B6F03F00203002BEED1FB7D012B57
:1020D80005D1524A514B1B6C23F0805313647B6823
:1020E8009B69002B00F092804C4B9B6803F00C031B
:1020F800082B5CD07B689B69022B41D1484B00229E
:102108001A60FEF7B3FC386108E0FEF7AFFC024640
:102118003B69D31A022B01D9032378E03F4B1B6894
:1021280003F00073002BF0D13C497B68DA697B68C7
:102138001B6A1A437B685B6A9B011A437B689B6A2C
:102148005B08013B1B041A437B68DB6A1B061343CD
:102158004B60334B01221A60FEF788FC386108E0B7
:10216800FEF784FC02463B69D31A022B01D90323EC
:102178004DE02A4B1B6803F00073002BF0D045E0BC
:10218800274B00221A60FEF771FC386108E0FEF761
:102198006DFC02463B69D31A022B01D9032336E0B2
:1021A8001E4B1B6803F00073002BF0D12EE07B68F8
:1021B8009B69012B01D1012329E0184B5B68FB6067
:1021C800FB6803F480027B68DB699A421CD1FB68D8
:1021D80003F03F027B681B6A9A4215D1FA6847F6FA
:1021E800C07313407A68526A93420DD1FB6803F4B6
:1021F80040327B689B6A9A4206D1FB6803F07062A2
:102208007B68DB6A9A4201D0012300E0002318466C
:102218001837BD4680BD00BF00700040003802403E
:102228006000474280B584B000AF786039607B6851
:10223800002B01D10123CCE0684B1B6803F00F028F
:102248003B689A420CD2654B3A68D2B21A70634B1B
:102258001B6803F00F023B689A4201D00123B8E0E3
:102268007B681B6803F00203002B20D07B681B6887
:1022780003F00403002B05D0594A594B9B6843F4DB
:10228800E05393607B681B6803F00803002B05D0BC
:10229800534A534B9B6843F4604393605049504BF7
:1022A8009B6823F0F0027B689B6813438B607B6814
:1022B8001B6803F00103002B44D07B685B68012B8B
:1022C80007D1474B1B6803F40033002B19D10123B6
:1022D8007FE07B685B68022B03D07B685B68032B1D
:1022E80007D13F4B1B6803F00073002B09D1012372
:1022F8006FE03B4B1B6803F00203002B01D1012365
:1023080067E03749364B9B6823F003027B685B68BC
:1023180013438B60FEF7AAFBF8600AE0FEF7A6FB02
:102328000246FB68D31A41F28832934201D903234B
:102338004FE02B4B9B6803F00C027B685B689B00AB
:102348009A42EBD1254B1B6803F00F023B689A4277
:102358000CD9224B3A68D2B21A70204B1B6803F092
:102368000F023B689A4201D0012332E07B681B6868
:1023780003F00403002B08D01949194B9B6823F478
:10238800E0527B68DB6813438B607B681B6803F053
:102398000803002B09D01249114B9B6823F46042B3
:1023A8007B681B69DB0013438B6000F021F8014652
:1023B8000B4B9B681B0903F00F030A4AD35C21FAF5
:1023C80003F3094A1360094B1B681846FEF70AFB1A
:1023D800002318461037BD4680BD00BF003C0240B0
:1023E800003802406C26000800000020040000208D
:1023F8002DE9F04F8FB000AF0023FB6200237B6311
:102408000023BB6200233B63624B9B6803F00C0311
:10241800042B07D0082B08D0002B40F0B2805E4B6D
:102428003B63B1E05D4B3B63AEE05A4B5B6803F046
:102438003F03FB62574B5B6803F48003002B4ED0CD
:10244800544B5B689B094FF0000440F2FF114FF0BA
:10245800000201EA030102EA04020B461446600185
:102468007862786A40EAD36078625B013B62D7E9B8
:1024780008345B1A64EB02044FEA841949EA936949
:102488004FEA8318B8EB030869EB04094FEAC9035C
:10249800FB61FB6943EA5873FB614FEAC803BB6100
:1024A800D7E9068918EB010849EB02094FEA4923E5
:1024B8007B617B6943EAD8537B614FEA48233B61E0
:1024C800D7E9048940464946FB6A4FF000041A469A
:1024D8002346FDF775FE03460C467B6343E02D4B10
:1024E8005B689B094FF0000440F2FF114FF00002B7
:1024F80001EA030102EA04020B4614466001F8608F
:10250800F86840EAD360F8605B01BB60D7E9023441
:102518005B1A64EB0204A60146EA93669D01ED1A74
:1025280066EB0406F3007B607B6843EA55737B60C7
:10253800EB003B6097E860006D1846EB02064FEA37
:10254800862B4BEA955B4FEA852A55465E46284618
:102558003146FB6A4FF000041A462346FDF730FE69
:1025680003460C467B630B4B5B681B0C03F00303B1
:1025780001335B00BB627A6BBB6AB2FBF3F33B636C
:1025880002E0054B3B6300BF3B6B18463C37BD463A
:10259800BDE8F08F003802400024F40000127A00F1
:1025A800DFF834D0002103E00C4B5B584350043172
:1025B8000B480C4B42189A42F6D30B4A02E0002310
:1025C80042F8043B094B9A42F9D3FEF7D3F900F0DD
:1025D80011F8FDF77DFF7047000002208C260008E7
:1025E800000000200C0000200C000020B800002093
:1025F800FEE7000070B50D4E0D4CA41BA41000257D
:10260800A54209D10B4E0C4C00F020F8A41BA410D5
:102618000025A54205D170BD56F8253098470135EB
:10262800EEE756F8253098470135F2E7842600088A
:1026380084260008842600088826000802440346E9
:10264800934200D1704703F8011BF9E7F8B500BFC2
:10265800F8BC08BC9E467047F8B500BFF8BC08BC7B
:042668009E467047D3
:10266C000000000000000000010203040607080936
:08267C007CDBFF7F0100000080
:04268400AD0100089C
:0426880089010008BC
:0C268C000024F400100000000100000019
:04000005080025A921
:00000001FF
